:100000000C94C9000C94F1000C94F1000C94290F8D
:100010000C94CF0F0C94AB0F0C94F1000C94F100E6
:100020000C94F1000C94F1000C94F1000C94F1008C
:100030000C94F1000C94F1000C94F1000C94F1007C
:100040000C94870E0C94F1000C94F70E0C94D10EC6
:100050000C94F1000C94F1000C94F1000C94F1005C
:100060000C94F1000C94F10000C201000100110099
:1000700011000C0000E100000A002500250021000D
:10008000009600001900390039003600127A00008D
:100090001F004600460044008070000022004D0012
:1000A0004D004A00004B00003600750075007200DC
:1000B000403800004A009C009C0099008025000008
:1000C0007200EC00EC00E900C0120000E900DA0167
:1000D000DA01D70160090000D701B603B603B30304
:1000E000B0040000B3036E076E076B0758020000F0
:1000F0006E07DC0EDC0ED80E2C010000DC0EC11DDC
:10010000C11DBE1D00000000240027002A000000C1
:1001100000080002010000030407000000000000C6
:100120000000CDCCCC3D0AD7233C17B7D13877CCD3
:100130002B329595E6241FB14F0A000020410000A4
:10014000C84200401C4620BCBE4CCA1B0E5AAEC55D
:100150009D7400000000230026002900000000001C
:10016000250028002B0004040404040404040202F3
:100170000202020203030303030301020408102026
:100180004080010204081020010204081020F30F2F
:10019000FE1411241FBECFEFD8E0DEBFCDBF22E09A
:1001A000AEE9B1E001C01D92A93BB207E1F711E051
:1001B000A0E0B1E0E8E4F3E302C005900D92AE39AF
:1001C000B107D9F710E0C8ECD0E004C02197FE01D8
:1001D0000E94FE16C73CD107C9F70E94A7100C94D5
:1001E00097190C9400008CBD9DBD0895833081F05B
:1001F00028F4813099F08230A9F008958730A9F071
:100200008830C9F08430B1F4809180008F7D03C0C4
:10021000809180008F7780938000089584B58F77D8
:1002200084BD089584B58F7DFBCF8091B0008F771A
:100230008093B00008958091B0008F7DF9CF1F9317
:10024000CF93DF93282F30E0F901E25FFE4F8491D6
:10025000F901E658FE4FD491F901EA59FE4FC491D5
:10026000CC23A9F0162F81110E94F600EC2FF0E0AC
:10027000EE0FFF1FE45AFE4FA591B4918FB7F8948B
:10028000EC91111108C0D095DE23DC938FBFDF9174
:10029000CF911F910895DE2BF8CFCF93DF9390E09D
:1002A000FC01E658FE4F24918A599E4FFC0184912F
:1002B0008823D1F090E0880F991FFC01EC5FFE4F7E
:1002C000A591B491FC01E45AFE4FC591D4916111FE
:1002D0000EC09FB7F8948C91E22FE0958E238C93FB
:1002E0002881E223E8839FBFDF91CF9108958FB7E4
:1002F000F894EC91E22BEC938FBFF6CF3FB7F894D4
:100300008091E4019091E501A091E601B091E701AF
:1003100026B5A89B05C02F3F19F00196A11DB11D60
:100320003FBFBA2FA92F982F8827BC01CD01620F9C
:10033000711D811D911D42E0660F771F881F991F57
:100340004A95D1F708958F929F92AF92BF92CF9224
:10035000DF92EF92FF920E947E014B015C0182E3EB
:10036000C82ED12CE12CF12C0E947E01681979094C
:100370008A099B09683E734081059105A8F321E035
:10038000C21AD108E108F10888EE880E83E0981EB1
:10039000A11CB11CC114D104E104F10429F7FF90A0
:1003A000EF90DF90CF90BF90AF909F908F90089587
:1003B000AF92BF92CF92DF92EF92FF920F931F9373
:1003C000CF93DF936C017B018B01040F151FEB01B1
:1003D0005E01AE18BF08C017D10759F06991D60168
:1003E000ED91FC910190F081E02DC6010995892BDA
:1003F00079F7C501DF91CF911F910F91FF90EF9099
:10040000DF90CF90BF90AF900895FC01538D448D45
:10041000252F30E0842F90E0821B930B541710F0AF
:10042000CF96089501970895FC01918D828D9817BC
:1004300061F0A28DAE0FBF2FB11D5D968C91928D94
:100440009F5F9F73928F90E008958FEF9FEF0895C5
:10045000FC01918D828D981731F0828DE80FF11D8E
:10046000858D90E008958FEF9FEF0895FC01918DA9
:10047000228D892F90E0805C9F4F821B91098F73A2
:10048000992708958CEE91E00E94360221E0892B95
:1004900009F420E0822F089580E090E0892B29F074
:1004A0000E94420281110C9400000895FC01A48D69
:1004B000A80FB92FB11DA35ABF4F2C91848D90E086
:1004C00001968F739927848FA689B7892C93A08969
:1004D000B1898C91837080648C93938D848D9813F3
:1004E00006C00288F389E02D80818F7D8083089586
:1004F000EF92FF920F931F93CF93DF93EC0181E074
:10050000888F9B8D8C8D98131AC0E889F98980811A
:1005100085FF15C09FB7F894EE89FF896083E8894D
:10052000F98980818370806480839FBF81E090E03F
:10053000DF91CF911F910F91FF90EF900895F62ECC
:100540000B8D10E00F5F1F4F0F731127E02E8C8D66
:100550008E110CC00FB607FCFACFE889F9898081AB
:1005600085FFF5CFCE010E945602F1CFEB8DEC0F47
:10057000FD2FF11DE35AFF4FF0829FB7F8940B8FC8
:10058000EA89FB8980818062CFCFCF93DF93EC0132
:10059000888D8823B9F0AA89BB89E889F9898C916B
:1005A00085FD03C0808186FD0DC00FB607FCF7CF27
:1005B0008C9185FFF2CF808185FFEDCFCE010E9427
:1005C0005602E9CFDF91CF910895DC015196ED916C
:1005D000FC915297908150968C91809589238083CD
:1005E00008952091E1013091E2012817390781F443
:1005F0009091DF018091E001981751F0E091DF01C7
:10060000F0E0E256FE4F8081082E000C990B089511
:100610008FEF9FEF08952091E1013091E2012817BB
:10062000390739F48FB7F8941092E0011092DF0186
:100630008FBF08952091E1013091E2012817390719
:1006400071F48091E0012091DF0190E0805C9F4F88
:10065000821B910960E470E00E94C816089590E042
:1006600080E008952091E1013091E20128173907D7
:10067000B9F49091DF018091E001981789F0E09141
:10068000DF01F0E0E256FE4F80812091DF0130E093
:100690002F5F3F4F2F7333272093DF0190E00895A2
:1006A0008FEF9FEF089520E001972FEF8F3F920784
:1006B000D9F7089590E080E00895BC016E5F7F4F08
:1006C000DC01ED91FC910190F081E02D40E0099575
:1006D00091E0811190E0892F089508958EBD00006A
:1006E0000DB407FEFDCF8EB50895DF92EF92FF9215
:1006F0000F931F93CF93DF937C01062FD42E152FDA
:1007000080E590E00E94F30060E0F70186850E949A
:100710001F0182E10E946E03CD2DD12F0C0F1D2FE2
:10072000111DC017D10721F089910E946E03F9CFE6
:1007300061E0F7018685DF91CF911F910F91FF90C6
:10074000EF90DF900C941F011F93CF93DF93EC0188
:10075000162F80E590E00E94F30060E08E850E94F5
:100760001F01812F80680E946E0380E00E946E034B
:10077000182F61E08E850E941F01812FDF91CF919C
:100780001F9108950F931F93CF93DF93EC01062FD2
:10079000142F80E590E00E94F30060E08E850E94B7
:1007A0001F01802F0E946E03812F0E946E0361E063
:1007B0008E85DF91CF911F910F910C941F01CF92E5
:1007C000DF92EF92FF920F931F93CF93DF93EC0191
:1007D0006B01F42E890140E062E00E94C20344E014
:1007E0006AE0CE010E94C20340E864E1CE010E94AB
:1007F000C203A6016F2DCE010E94750343E062E0A3
:10080000CE010E94C2038FB7F894C090E801D09047
:10081000E901E090EA01F090EB018FBF89E5C80E95
:10082000D11CE11CF11C6AE0CE010E94A40382FFEE
:100830001BC040E062E0CE010E94C20364E4CE012E
:100840000E94A403F801808362E4CE010E94A40305
:10085000F801818380E0DF91CF911F910F91FF908C
:10086000EF90DF90CF9008952FB7F8948091E80132
:100870009091E901A091EA01B091EB012FBF8C1595
:100880009D05AE05BF0578F283E0E5CF6F3FA9F087
:10089000E62FE295EF7044E0E49F90011124DC0123
:1008A000ED91FC91E20FF31F6F7082819381B6E0AE
:1008B0006B9F800D911D1124089590E080E00895B4
:1008C000BF92CF92DF92EF92FF920F931F93CF933D
:1008D000DF938A01F12CE12C452B39F17F77DC0184
:1008E0001396ED90FC90C62FD72FE114F10441F13F
:1008F000D70113962C9113972C171D0659F4F80164
:100900001496C00FD11FCE17DF0741F031912D9102
:100910003217C9F3F701E080F180E5CFD7011296D5
:100920008C9112978F5F12968C93C701DF91CF91B4
:100930001F910F91FF90EF90DF90CF90BF9008959F
:100940006C01CF3FD10509F048F5BE016B5F7F4FC9
:100950006C177D0718F1FC0180819181DC01ED911C
:10096000FC910190F081E02D0995DC01892BB1F01B
:100970001396CC93139781E012968C931297CD0126
:100980000496A8014C0F5D1F0417150759F0F801D4
:1009900021918F01FC012193CF01F6CF81E0F60177
:1009A0008283C3CFCA0FDB1F1C82F601838194812F
:1009B00011969C938E93B483A3837D01B6CFDC0103
:1009C00052969C915297915084E0989F90011124E7
:1009D0005096ED91FC91E20FF31F22813381211596
:1009E000310579F041818081481758F481E0840F06
:1009F000818386E0489F200D311D1124211531058A
:100A000021F460E070E08FEF0895B901892F82959D
:100A1000807F840F0895AF92BF92CF92DF92EF92C2
:100A2000FF920F931F93CF93DF93EC018B018C8187
:100A300080FF2CC0A881B981FB018381948130E0C3
:100A400020E0009719F1A817B90709F041C0F80193
:100A50004081518112969C911297915012969C93CD
:100A60001297911113C08D919C9111972115310509
:100A700061F1F90191838083FA0180819181FC0108
:100A800022813381BD01CA01F90109958C818076EB
:100A900031F1209721F1F8805801F5E1AF0EB11C3A
:100AA0008FEFF816D1F06F2DC5010E9446046C013E
:100AB000FC01E580B8010E940B05F801818DF6016B
:100AC0008083F801F18EFE2CEBCF94838383D4CF07
:100AD0009C01FC0180819181B4CFF882F9821C8253
:100AE000DF91CF911F910F91FF90EF90DF90CF900A
:100AF000BF90AF9008954F925F926F927F928F92C6
:100B00009F92AF92BF92CF92EF92FF920F931F935B
:100B1000CF93DF93EC014B01642E590180E0E11487
:100B2000F10411F0F70180817C2C729490EF79220E
:100B3000780E40E062E0CE010E94C2034FE768E019
:100B4000CE010E94C20340E864E1CE010E94C203CC
:100B5000A401662DCE010E947503472D6AE1CE01E6
:100B60000E94C2034CE062E0CE010E94C2036AE12F
:100B7000CE010E94A403482F40686AE1CE010E9482
:100B8000C2038FB7F8944090E8015090E90160905B
:100B9000EA017090EB018FBFF4E24F0E511C611C13
:100BA000711C68E0CE010E94A403982F907309F095
:100BB00080C080FF11C083E0DF91CF911F910F9122
:100BC000FF90EF90CF90BF90AF909F908F907F90CD
:100BD0006F905F904F9008952FB7F8948091E8013F
:100BE0009091E901A091EA01B091EB012FBF84152A
:100BF0009505A605B705A8F2DECFA114B10409F446
:100C000051C00115110509F44DC064E1CE010E94E7
:100C1000A403982EF8018081891508F448C09082B9
:100C20009920B1F180E590E00E94F30060E08E85AC
:100C30000E941F019A9482E90E946E03CC2099F0D1
:100C40000FEF10E001C0000FCA94EAF782E90E949A
:100C50006E03902F9095F501208192238023982B8D
:100C60009083CC24C394AC0CB11CC91440F482E929
:100C70000E946E03F50181935F01C394F6CF80E07B
:100C80000E946E03F501808361E08E850E941F0142
:100C900068E1CE010E94A403E114F10419F0877009
:100CA000F701808382E083FC87CF80E085CF84E0FA
:100CB00083CF6CE0CE010E94A403882E837109F4D7
:100CC0009CCF81E079CFAF92BF92CF92EF92FF920B
:100CD0000F931F93CF93DF9300D000D01F92CDB717
:100CE000DEB75C0182E08D8340E064E2C5010E94D2
:100CF000C20340E066E2C5010E94C20346E268E426
:100D0000C5010E94C20386E28B838D818230C8F1C7
:100D10006CE1C5010E94A403482F4F776CE1C50127
:100D20000E94C20387E08C83C12CCE0104967C0113
:100D30008E010B5F1F4F9E012F5F3F4F41E0BE01B1
:100D40006D5F7F4FC5010E947B05982F811116C0F2
:100D50008D818230B1F48C81811113C081E00F90BC
:100D60000F900F900F900F90DF91CF911F910F91E7
:100D7000FF90EF90CF90BF90AF90089581E09230B8
:100D800071F380E0ECCF2F923F924F925F926F927F
:100D90007F928F929F92AF92BF92CF92DF92EF920B
:100DA000FF920F931F93CF93DF93CDB7DEB72C97AE
:100DB0000FB6F894DEBF0FBECDBF16E0413508F088
:100DC00049C1342E4B015C016CE10E94A403482F01
:100DD0004F776CE1C5010E94C20383E98983332008
:100DE00029F081E0F4019081953008F480E04424FA
:100DF0004394512C952D990F990F990FD32CD91AF3
:100E0000D7FCD12C32E0882319F098E89B8333E09B
:100E100021E09D2D977009F420E09D2D95959595E5
:100E20009595290FC9F094E0811193E0291708F4F2
:100E3000922FE52DF0E03196E80DF91D232F419119
:100E4000A1E0B0E0AC0FBD1FA20FB11D4C932F5F0E
:100E5000422F431B491798F3882311F0F8E0DF0E67
:100E60008FE18D150CF081C090E79A838B819C8176
:100E700089279D8189279E8189278F839E01285FED
:100E80003F4F47E0BE016F5F7F4FC5010E94DF0308
:100E9000182F8111DFC01A86E3E0EB87DC86CE01D4
:100EA00007963C0129E0222ECA844C2D4295407FB2
:100EB0004C0D6AE1C5010E94C203FE013A967F0112
:100EC0008E01055F1F4F9301422DBE016F5F7F4F63
:100ED000C5010E947B05182F823009F065C06CE1C6
:100EE000C5010E94A40385FDB5C08F7109F480E29D
:100EF000282F30E04D2DDD0C550B421753070CF019
:100F00009DC0D82EE82FE595E595E595EF5F982FE4
:100F1000977081E009F480E0E80F81E090E08C0FA9
:100F20009D1F8E0F911DFC01215031092770332721
:100F300081E090E002C0880F991F2A95E2F79C019A
:100F40008081822B80838CCF85E98983332031F0A7
:100F500081E0F4019081983008F04CCF80E04ACFD6
:100F600087E9898336E0532EF9CF9D2D97709A87B4
:100F70008D2D8595859585958E5F282F2295207FCF
:100F8000290F2A8321E0911101C020E0222E280E92
:100F900066246394712C6C0E7D1E680E711C99E0A2
:100FA000981B9B87DC8680CF811154C080E2D82EAD
:100FB0009C8590320CF458CF8B81883809F040C062
:100FC00083E093E0E52DF0E03196E80DF91D980FF0
:100FD000A1E0B0E0AC0FBD1FA80FB11D2C91219373
:100FE0008F5F8913F5CF5B84E3E05E124DC08A8585
:100FF00081114AC09E012D5F3F4F41E0B301C50101
:101000000E94DF03182F811125C09B81F30181818C
:1010100098133CC09C818281981338C0808182FFE4
:1010200012C04394F2E04F1609F48ECF83E04816C5
:1010300009F496CF91E0491609F4CFCE15E00AC025
:1010400082E094E0BFCFF4018387842D880F480E9F
:1010500043944082812F2C960FB6F894DEBF0FBECA
:10106000CDBFDF91CF911F910F91FF90EF90DF9057
:10107000CF90BF90AF909F908F907F906F905F9038
:101080004F903F902F90089511E0E4CF17E0E2CF0A
:10109000DF92EF92FF920F931F93CF93DF93EC01B8
:1010A000898D9A8D892B71F481E090E09B838A83EE
:1010B00090E080E0DF91CF911F910F91FF90EF9032
:1010C000DF900895162FDFB6F8948B8D81FD29C02F
:1010D000CE010E94E502898D9A8D05960E945303E8
:1010E0008B8D98E0E92EF12C01E081FF28C0812F43
:1010F0008023F1F0CE010E94E502898D9A8D0E9435
:101100005303000F81E0E81AF10889F7CE010E942D
:10111000E502DFBE898D9A8D0E94530381E090E045
:10112000C9CFE989FA8980819889892B8083D3CFB7
:10113000E989FA8980819889892B8083DECF812F84
:101140008023B1F0E989FA8980819889892B80838D
:10115000898D9A8D0E945303000F81E0E81AF108EF
:1011600071F7E989FA8980819889892B8083D1CFA9
:10117000CE010E94E502ECCFFB0101900020E9F7CF
:101180003197AF01461B570BDC01ED91FC910280BA
:10119000F381E02D09940F931F93CF93DF93EC011C
:1011A000FB014481558160817181E881F981028070
:1011B000F381E02D09958C0160E471E0CE010E947D
:1011C000BC08800F911FDF91CF911F910F9108955F
:1011D0000F931F93CF93DF93EC0188819981009740
:1011E00059F02A813B812617370730F081E0DF91E3
:1011F000CF911F910F9108958B016F5F7F4F0E94D8
:10120000CA18009759F0998388831B830A832C811D
:101210003D81232B59F7FC011082E8CF80E0E7CF16
:10122000EF92FF920F931F93CF93DF936115710598
:1012300041F480E0DF91CF911F910F91FF90EF90EB
:10124000089541155105B1F07B01EC010C811D8120
:10125000040F151FB8010E94E808882351F3288164
:1012600039818C819D81B701820F931F0E94901953
:101270001D830C8381E0DECFCF93DF93EC01EAA1E5
:10128000FBA1E80FF91F1282BC016E5F7F4F81F056
:10129000FB0101900020E9F73197AF01461B570B86
:1012A000888199810E941009882311F01BA21AA23B
:1012B0008AA19BA1DF91CF9108951F93CF93DF93D4
:1012C000EC01162F8AA19BA101968097B8F48AA100
:1012D0009BA19C012F5F3F4F3BA32AA38C0F9D1F17
:1012E000FC01128321E030E08CA19DA1820F931FAD
:1012F0009DA38CA3DF91CF911F910895CE010E94F1
:101300003C09892B21F330E020E0EECFBF92CF9251
:10131000DF92EF92FF920F931F93CF93DF93EC0135
:101320006A018B017B01E40EF51EE016F106D1F097
:10133000F801B1908F018AA19BA10196809760F47A
:101340008AA19BA19C012F5F3F4F3BA32AA38C0F37
:101350009D1FFC01B282E9CFCE010E943C09892B7E
:1013600079F3E3CF4CA15DA14C0D5D1D5DA34CA3B2
:10137000DF91CF911F910F91FF90EF90DF90CF9071
:10138000BF9008958F929F92AF92BF92CF92DF92BB
:10139000EF92FF920F931F93CF93DF93CDB7DEB7FA
:1013A00066970FB6F894DEBF0FBECDBF6C018E01FD
:1013B000095E1F4F78018AE0882E912CA12CB12C58
:1013C000CB01BA01A50194010E94DC16942F852F50
:1013D000605DF80162938F01A901692F782F411593
:1013E00051056105710561F7A7014E1B5F0BBF0138
:1013F000C6010E94860966960FB6F894DEBF0FBE3E
:10140000CDBFDF91CF911F910F91FF90EF90DF90B3
:10141000CF90BF90AF909F908F900895FB01019067
:101420000020E9F73197AF01461B570B0C94860952
:10143000CF92DF92EF92FF920F931F93CF93DF93A0
:101440008C016B017A0162E20E945D09E601EC0CFD
:10145000FD1CEC16FD0699F06991E3E4F1E0D480FF
:10146000DD20C9F0329683816813F9CF6CE5C8019D
:101470000E945D096D2DC8010E945D09EACF62E2FC
:10148000C801DF91CF911F910F91FF90EF90DF90F6
:10149000CF900C945D096111EECF66E571E0C80153
:1014A0000E940E0AD6CF2F923F924F925F926F9278
:1014B0007F928F929F92AF92BF92CF92DF92EF92E4
:1014C000FF920F931F93CF93DF93CDB7DEB76B9748
:1014D0000FB6F894DEBF0FBECDBF7C018B01DC01DF
:1014E00014968C9114978A3009F4A0C2F0F48430D9
:1014F00009F479C268F4833009F490C26DE571E0B3
:10150000C8010E940E0AD80194968D919C9129C21F
:10151000853009F47BC2863089F78C9162E671E0F0
:10152000811155C067E671E052C08E3009F440C0A9
:10153000C8F48C3019F7CD90DD90ED90FC90B70198
:10154000A601F7FE0BC06DE2C8010E945D094427A9
:101550005527BA014C195D096E097F09C8010E941F
:10156000C209FCC1803209F415C2803439F66BE53A
:10157000C8010E945D09D701FC90BFEFFB1609F47A
:10158000E9C1F80186A197A16F2D45960E944604F6
:101590007C01B8010E94530AD7011596FC90BFEF59
:1015A000FB1609F4D7C16CE2C8010E945D09E5CFC2
:1015B000F70180809180A280B380A5019401C501CC
:1015C000B4010E945915882331F06DE571E0C8011E
:1015D0000E940E0AC3C120E030E0A901C501B40198
:1015E0000E945915882371F0A5019401C501B40129
:1015F0000E9405179B01AC01C501B4010E94591559
:10160000882319F320E030E0A901C501B4010E944C
:10161000591587FF08C06DE2C8010E945D09B7FA3D
:10162000B094B7F8B09420E836E948E15BE4C5012E
:10163000B4010E94A01787FD83C074E1C72ED12C8E
:10164000E0E2EE2EF12C312C212CF601E65CFE4F6F
:101650006591759185919491A50194010E94591508
:1016600018167CF0F601EE5DFE4F259135914591FF
:101670005491C501B4010E94BF154B015C012E0CB1
:101680003F1CF594E794F4E0CF1AD1082CEFC21672
:101690002FEFD206D1F63FEF3F8B20E030E0A901DB
:1016A000C501B4010E94A01718160CF051C02CEA15
:1016B00035EC47E257E3C501B4010E9459151816ED
:1016C0000CF446C0AF89B4E0AB02C0011124D12CA8
:1016D000C12CFC01EE5DFE4F2F019C01265C3E4FAC
:1016E00039013F893F3F09F433C0F201EC0DFD1D84
:1016F000659175918591949120E030E040E251E44C
:101700000E94BF15A50194010E94A01718167CF431
:10171000F301EC0DFD1D2591359145915491C501C5
:10172000B4010E94BF154B015C012E183F08F594CF
:10173000E7948F8981508F8B94E0C91AD108D1CF5B
:1017400050E2E52EF12C85E08F8B312C212CA5CF9A
:10175000C501B4010E9471176B017C012B013C0192
:1017600080E492E4AFE0B0E0888F998FAA8FBB8FBE
:1017700096E09F8BAAE04A16510461047104E0F0E0
:10178000688D798D8A8D9B8D2AE030E040E050E0B5
:101790000E94DC16288F398F4A8F5B8FBF89B1502A
:1017A000BF8BC301B2012AE030E040E050E00E946C
:1017B000DC1629013A01DECFC701B6010E945E1591
:1017C0009B01AC01C501B4010E9404174B015C01EF
:1017D000688D798D8A8D9B8D0E945E159B01AC0171
:1017E000C501B4010E94BF152B013C010E94711775
:1017F0004B015C010E945E159B01AC01C301B2016B
:101800000E9404179B01AC010E9405170E947117EA
:10181000860E971EA81EB91E888D998DAA8DBB8D28
:1018200088169906AA06BB06C0F09FEFC91AD90A06
:10183000E90AF90A2114310439F1AAE0CA16D104DF
:10184000E104F10408F1BFEF2B1A3B0A812C912C23
:101850005401C12CD12C7601C3942AE0422E512C84
:10186000612C712CC501B401A30192010E94DC1608
:10187000672B682B692B61F4EF891E164CF4490124
:101880005A01E150EF8BEECF812C912C5401E5CF22
:10189000B701A601C8010E94C209FF89FF2391F187
:1018A0006E0121E1C20ED11CF88F76019AE0492E1B
:1018B000512C612C712C388D3150388F3F3F69F09D
:1018C000C501B401A30192010E94DC16605DD6013E
:1018D0006E936D0149015A01EECFBF898B2F90E0C5
:1018E000BC0160957095F701E81BF90B31978EE20A
:1018F000808344275527461B570B6E0D7F1DC8015B
:101900000E9486092114310449F165E6C8010E944C
:101910005D09710137FE07C06DE2C8010E945D09D3
:10192000F194E194F108FE0177969F018AE0C82EB8
:10193000D12CC701B6010E94B416805D82937B0151
:10194000672BB9F7A9014E1B5F0BBF01C8010E94AD
:10195000860904C06DE5C8010E945D09F80184A1F3
:1019600095A16B960FB6F894DEBF0FBECDBFDF9189
:10197000CF911F910F91FF90EF90DF90CF90BF908C
:10198000AF909F908F907F906F905F904F903F901F
:101990002F9008956BE7C8010E945D09D701FC9064
:1019A000EE24E394BB24B394BFEFFB16D1F0F8010F
:1019B00086A197A16F2D45960E9446046C01B8013F
:1019C0000E94530AD6011596FC90BFEFFB1639F022
:1019D0006AE3E11001C06CE2C8010E945D09EB24DA
:1019E000E3CF6DE7B8CF6D917C9150E040E0611599
:1019F000710541F0FB0101900020E9F73197AF013B
:101A0000461B570BC8010E94180AA8CFED91FC9104
:101A1000438150E0BF016C5F7F4FF4CFED91FC91AB
:101A2000438150E0BF016C5F7F4F90CF4D915D913E
:101A30006D917C9193CDCB01BA010C94CA18CF93D0
:101A4000DF93EC0188819981009711F00E94411881
:101A5000198218821D821C821B821A82DF91CF910B
:101A60000895EF92FF920F931F93CF93DF93EC01B2
:101A70007B018A01BA010E94E80881110BC0CE01E6
:101A80000E941F0DCE01DF91CF911F910F91FF900A
:101A9000EF9008951D830C83B701888199810E947E
:101AA0009019F0CFCF93DF93EC01FB0186179707D6
:101AB00049F0608171816115710541F04481558162
:101AC0000E94310DCE01DF91CF9108950E941F0D2C
:101AD000F9CFFC01118210821382128215821482C6
:101AE000FB0101900020E9F73197AF01461B570B2E
:101AF0000C94310DFC0180819181009711F00C94C0
:101B0000411808950F931F93CF93DF93CDB7DEB79E
:101B10002C970FB6F894DEBF0FBECDBF8C011A8292
:101B200019821C821B821E821D82CE0101960E9498
:101B3000520D41E050E06DE671E0CE0101960E9449
:101B40001009811104C0CE0101960E941F0DF801F9
:101B50004481558160817181CE0101960E941009F6
:101B6000811104C0CE0101960E941F0D18861F82AC
:101B70001A8619861C861B86BE016F5F7F4FCE01B9
:101B800007960E94520DCE0101960E947A0DBE0169
:101B9000695F7F4F89E892E00E94CB08BE01695FD0
:101BA0007F4F8CEE91E00E94CB08CE0107960E94F9
:101BB0007A0D2C960FB6F894DEBF0FBECDBFDF9125
:101BC000CF911F910F910895CB010C944118BF92B2
:101BD000CF92DF92EF92FF920F931F93CF93DF93F9
:101BE000EC01198D1F3F81F0612F45960E9446043C
:101BF000FC018081898F309709F477C014828FEFC0
:101C00008583BF01812F76C06C0135E0C30ED11CE6
:101C1000E880F9808F89882341F0C6010E94DF04A3
:101C2000E62FF72F182F309749F71F89988D191332
:101C300024C0103109F459C0110F6D897E89D70174
:101C4000ED91FC91B4E01B9FA0011124C616D706AC
:101C500009F044C00190F081E02DBA01C701099557
:101C6000009709F442C020E1F601DC0101900D92D9
:101C70002A95E1F79E8B8D8B188F0D891E898F8990
:101C800021E0280F2F8BE4E08E9FC0011124080F64
:101C9000191F90E1B92E203111F48FE0B82EF6E033
:101CA000BF9EB0011124D701ED91FC910190F0810C
:101CB000E02DC7010995F80193838283892B09F4EC
:101CC000B12CD801BC9211961C92012B71F0C60167
:101CD0000E94DF04E62FF72F182F8DCF0480F581A7
:101CE000E02DC7010995009729F681E08A8360E01D
:101CF00070E08FEFDF91CF911F910F91FF90EF90E8
:101D0000DF90CF90BF900895CB010C94A5171F9240
:101D10000F920FB60F9211242F933F938F939F939F
:101D2000AF93BF938091E8019091E901A091EA01FE
:101D3000B091EB013091E30123E0230F2D3758F5EB
:101D40000196A11DB11D2093E3018093E8019093BA
:101D5000E901A093EA01B093EB018091E401909135
:101D6000E501A091E601B091E7010196A11DB11D29
:101D70008093E4019093E501A093E601B093E7011D
:101D8000BF91AF919F918F913F912F910F900FBE77
:101D90000F901F90189526E8230F0296A11DB11DE4
:101DA000D2CF1F920F920FB60F9211242F933F9311
:101DB0004F935F936F937F938F939F93AF93BF9353
:101DC000EF93FF938CEE91E00E945602FF91EF910A
:101DD000BF91AF919F918F917F916F915F914F9143
:101DE0003F912F910F900FBE0F901F9018951F924B
:101DF0000F920FB60F9211242F938F939F93EF930F
:101E0000FF93E091FC01F091FD018081E0910202DD
:101E1000F091030282FD1BC09081809105028F5FCB
:101E20008F7320910602821741F0E0910502F0E0E5
:101E3000E451FE4F958F80930502FF91EF919F91A2
:101E40008F912F910F900FBE0F901F90189580814A
:101E5000F4CF1F920F920FB60F921124EF92FF92C0
:101E60000F931F932F933F934F935F936F937F93A2
:101E70008F939F93AF93BF93CF93DF93EF93FF9392
:101E8000C091E101D091E201209749F0EE85FF85F4
:101E90009D858B8D81FF1AC080818923D1F4FF91AC
:101EA000EF91DF91CF91BF91AF919F918F917F91F2
:101EB0006F915F914F913F912F911F910F91FF90E3
:101EC000EF900F900FBE0F901F901895808189237F
:101ED00031F78B899C890E94530388E0E82EF12C0E
:101EE00010E001E08D899E890E945303EE85FF85F5
:101EF00080819D85892339F1102B000F81E0E81A3C
:101F0000F10881F78F89988D0E9453038B8D81FD95
:101F100010958091E0012091DF0190E001968F7390
:101F200099272817190699F0E091E001F0E0E256B0
:101F3000FE4F10838091E00190E001968F73992706
:101F40008093E001ACCF802F80951823D6CF8B8D66
:101F500081608B8FA4CF1F920F920FB60F92112426
:101F60002F933F934F935F936F937F938F939F93A1
:101F7000AF93BF93EF93FF930E94290FFF91EF91CF
:101F8000BF91AF919F918F917F916F915F914F9191
:101F90003F912F910F900FBE0F901F9018951F9299
:101FA0000F920FB60F9211242F933F934F935F938D
:101FB0006F937F938F939F93AF93BF93EF93FF9311
:101FC0000E94290FFF91EF91BF91AF919F918F9147
:101FD0007F916F915F914F913F912F910F900FBE25
:101FE0000F901F9018951092EF011092EE0188EE5D
:101FF00093E0A0E0B0E08093F0019093F101A09312
:10200000F201B093F30126E131E03093ED0120932A
:10201000EC0125EC30E03093F9012093F80124EC39
:1020200030E03093FB012093FA0120EC30E0309354
:10203000FD012093FC0121EC30E03093FF0120935F
:10204000FE0122EC30E0309301022093000226ECE6
:1020500030E03093030220930202109205021092A6
:102060000602109207021092080210928C0210923F
:102070008B0280938D0290938E02A0938F02B09377
:10208000900288E291E090938A02809389021092F4
:102090009D0210929C0210929F0210929E0210923A
:1020A000A1021092A0021092A3021092A2028091AB
:1020B000A4028E7F8D7F8093A40261E08FE00E9456
:1020C0004D0161E08FE00E941F01E9E8F1E0E49139
:1020D000E0939902E5E7F1E0E491F0E0EE0FFF1FF5
:1020E000E45AFE4F8591949190939B0280939A02BB
:1020F00060E080E10E944D018091A40281FD04C056
:1021000061E080E10E941F0180E180939502EAE88E
:10211000F1E0E491E0939602E6E7F1E0E491F0E08B
:10212000EE0FFF1FEE5AFE4F859194919093980207
:10213000809397028AE391E09093A6028093A50290
:102140008AE08093B3028EE08093B4020895CF9327
:10215000DF93CDB7DEB7C45ED1090FB6F894DEBF0A
:102160000FBECDBF789484B5826084BD84B5816094
:1021700084BD85B5826085BD85B5816085BD809152
:102180006E00816080936E001092810080918100CA
:1021900082608093810080918100816080938100C2
:1021A000809180008160809380008091B100846084
:1021B0008093B1008091B00081608093B0008091E5
:1021C0007A00846080937A0080917A0082608093A4
:1021D0007A0080917A00816080937A0080917A0001
:1021E000806880937A001092C100E091FC01F09128
:1021F000FD0182E08083E091F801F091F901108205
:10220000E091FA01F091FB018FEC808310920402BF
:10221000E0910002F091010286E08083E091FE01EE
:10222000F091FF01808180618083E091FE01F09157
:10223000FF01808188608083E091FE01F091FF01C1
:10224000808180688083E091FE01F091FF018081B0
:102250008F7D808362E771E08CEE91E00E94BC0884
:1022600060E471E08CEE91E00E94BC081FB7F89426
:102270008091DE01811127C0E0E7F1E08491E4E87C
:10228000F1E09491E82FF0E0EE0FFF1FEC5FFE4FBE
:10229000A591B491EC91E92321F461E08AE00E94D8
:1022A0001F0161E08AE00E944D018CB580618CBD08
:1022B0008CB580648CBD61E08DE00E944D0161E0D1
:1022C0008BE00E944D018091DE018F5F8093DE01E3
:1022D0001FBF61E08091B3020E944D0161E08091D7
:1022E000B3020E941F018091B4028F3F09F48EC196
:1022F00060E00E944D012091B40230E0F901E25FFC
:10230000FE4F8491F901E658FE4F0491F901EA5914
:10231000FE4F149111116BC161E08091B4020E94D3
:102320004D0160E08091B4020E941F0183E090E0C3
:102330000197F1F761E08091B4020E941F010E94B1
:10234000A30140E064E285EA92E00E94C20340E01B
:1023500066E285EA92E00E94C20346E268E485EA0A
:1023600092E00E94C20340E864E585EA92E00E94A0
:10237000C20349EA66E585EA92E00E94C20343E0AF
:1023800068E585EA92E00E94C20348EE6AE585EAC4
:1023900092E00E94C20340E46AE285EA92E00E9471
:1023A000C2034DE362E285EA92E00E94C20368E262
:1023B00085EA92E00E94A403982F9370933039F03D
:1023C000482F436068E285EA92E00E94C2031092BF
:1023D000A3021092A2021092A1021092A0021092E7
:1023E0009F0210929E0210929D0210929C0290E019
:1023F00080E0FC01E859FF4F45915591659174913A
:10240000403855426105710509F013C1FC01E459DA
:10241000FF4F2591349130939D0220939C02FC0143
:10242000E259FF4F2591349130939F0220939E02F1
:10243000FC01E059FF4F259134913093A102209384
:10244000A002FC01EE58FF4F859194919093A30256
:102450008093A2028091A0029091A102892BB1F1F8
:1024600090919502963160F52091680084E0983053
:1024700048F031E09E3008F430E081E001C0880F80
:102480003A95EAF7822B80936800EDE6F0E0983009
:1024900050F0EBE6F0E09E3030F0ECE6F0E0963104
:1024A00010F0F0E0E0E04081292F30E0983008F0B3
:1024B000C6C081E001C0880F9A95EAF7842B80831B
:1024C0008091A2029091A3020E9453038091E101A6
:1024D0009091E2018958924091F08091A4028E7F00
:1024E0008093A4028FB7F8941092E0011092DF015C
:1024F00029E832E03093E2012093E1018FBF5E01D1
:1025000089EBA80EB11C250195E1490E511C3E0135
:10251000A9ED6A0E711CFE0131964F0165E571E06F
:10252000CE0181529F4F0E94690D85EA92E00E9480
:102530006306882309F450C285EA92E00E945D0395
:10254000382E882309F448C26AE871E08CEE91E0E5
:102550000E94BC0810E08091A702181708F07CC008
:10256000812F90E09C012B553D4F7901D9011396A5
:102570008C916FE671E0803110F062E971E0C40186
:102580000E94690D4D815E8169817A81CE018152FF
:102590009F4F0E941009C4010E947A0DF7018381A8
:1025A0001AA619A61CA61BA61EA61DA640E1B401CC
:1025B00090E00E942F15F40101900020E9F7319777
:1025C000AF0148195909B401CE0189960E94310D15
:1025D0004DA55EA569A57AA5CE0181529F4F0E94A7
:1025E0001009CE0189960E947A0D1F5FB4CF811128
:1025F0000E94F600E12FF0E0EE0FFF1FEE5AFE4FB3
:10260000A591B491EC910E2309F486CE4FE062E0DF
:1026100085EA92E00E94C20313E00E94A30162E0F7
:1026200085EA92E00E94A40384FF8BCE1150A9F7A3
:1026300088CE0C968C39910509F0DBCE0BCF9E30FD
:1026400040F42850310981E001C0880F2A95EAF74B
:1026500035CF2E503109F7CF80E589831A829E014C
:102660002D5F3F4F42E0B40185EA92E00E94DF0314
:1026700081110DC0C12CF12CE12C10E000E030E004
:1026800020E044E0B40185EA92E00E947B05BE01AF
:1026900061527F4F8CEE91E00E94CB0880E091E088
:1026A000D50111969C938E9312961C9212971496B4
:1026B0001C921E921397C501059656969C938E9375
:1026C000559757961C92579784E058968C93589735
:1026D0008FEF59968C9359975F968C935F9790E202
:1026E0005E969C935E975A968C935A975B968C93C2
:1026F0006FEFC50145960E944604FC011FEF892B30
:1027000009F0158101E03097A1F1332031F0848187
:10271000843069F0853009F417C13026612FC20179
:102720000E944604FC01892B71F31581ECCFA08136
:10273000B181F0E0E0E0109739F0FD010190002058
:10274000E9F73197EA1BFB0BFF77349731F7E4E9A0
:10275000F1E0CD01049631912D913213DECF8A172D
:102760009B07C9F7612FC2010E9446048C01892B87
:1027700049F5C5010E94E70DC82E7B01672B09F4BE
:102780004EC0C5010E94E70D382E962F092F172F36
:102790000115110509F443C084E0F701848384E93D
:1027A00091E0918380833582D5015B966C916F3F78
:1027B00009F4D2C0C2010E944604FC01C582D501C1
:1027C0005B963C92CD51DF4FC880C35ED040CC5168
:1027D000DF4F3880C45ED040C152DF4FE880F980BF
:1027E000CF5DD040B501C8010E940B05832D8F77C6
:1027F000BD2DB078DB2ED82AE894D7F8E114F10487
:1028000071F0A701B601C5010E946004009739F07C
:1028100025E0D80114962C9314978D939C9365E52D
:1028200071E0C3010E94690DCB56DF4F7982688247
:10283000C559D040C954DF4F19821882C75BD040B8
:10284000C3010E941F0D84E2FE01EB56FF4FDE0123
:10285000AF58BF4F01900D928A95E1F784E2FE01D7
:10286000EF58FF4FDE01A35BBF4F01900D928A9599
:10287000E1F784E2FE01E35BFF4FDE0199960190F0
:102880000D928A95E1F784E2FE01B996D401019098
:102890000D928A95E1F71EA21DA2CE0189960E9493
:1028A0003C09B8A6AFA2CE01835B9F4F0E943C09B2
:1028B000B401C5014A960E94530AC4010E943C0912
:1028C000CE018F589F4F0E943C09CE018B569F4FDF
:1028D0000E943C0969E971E0C4010E94690D1AA6D1
:1028E00019A61CA61BA61EA61DA6B301CE0189967D
:1028F0000E94520DB401CE0189960E94820DCE0134
:1029000089960E947A0DC4010E947A0DC3010E942B
:102910007A0DF50100811181D50113966D917C919D
:10292000149761157105E1F0FB0180819181149686
:102930009C938E931397D801ED91FC910280F381C3
:10294000E02DC8010995E8CF0190F081E02DDF016D
:102950001496E381F0E0F9CEF501C28E338E32CFCA
:10296000F501E080F180312CD50155966D917C9177
:10297000569757968C9157973816D8F4B4E03B9EEB
:1029800080011124060F171FF80162817381611500
:10299000710541F0D701ED91FC910280F381E02DAA
:1029A000C7010995F80113821282108211823394B3
:1029B000DBCF57961C9257978FEF59968C93C50192
:1029C00005966817790741F0D701ED91FC910280D7
:1029D000F381E02DC7010995CE0181529F4F0E94DE
:1029E0007A0D80E090E0892B09F498CD0E94420294
:1029F000882309F490CD0E9400008DCD88E291E0FB
:102A000090938A0280938902209195022631C0F426
:102A1000EDE6F0E0283030F0EBE6F0E02E3010F09C
:102A2000ECE6F0E03081422F50E0283050F481E0B5
:102A300090E001C0880F2A95EAF780958323808370
:102A400008952E3048F44850510981E090E001C0CB
:102A5000880F4A95EAF7F1CF4E505109F6CFBB27C0
:102A6000FB015527AA27880F991FAA1FA41710F04A
:102A7000A41B83955051B9F7A05DAA3308F0A95D56
:102A8000A193009779F7B111B1931192CB010C94F6
:102A90004915DC01FC01672F71917723E1F732972B
:102AA00004C07C916D9370836291AE17BF07C8F329
:102AB00008950E949B1508F481E00895E89409C0E8
:102AC00097FB3EF490958095709561957F4F8F4F61
:102AD0009F4F9923A9F0F92F96E9BB279395F69577
:102AE000879577956795B795F111F8CFFAF4BB0FF5
:102AF00011F460FF1BC06F5F7F4F8F4F9F4F16C059
:102B0000882311F096E911C0772321F09EE8872FE2
:102B1000762F05C0662371F096E8862F70E060E09E
:102B20002AF09A95660F771F881FDAF7880F969517
:102B3000879597F90895990F0008550FAA0BE0E8BB
:102B4000FEEF16161706E807F907C0F0121613066F
:102B5000E407F50798F0621B730B840B950B39F4AF
:102B60000A2661F0232B242B252B21F408950A2615
:102B700009F4A140A6958FEF811D811D08950E9443
:102B8000D2150C9443160E94351638F00E943C165C
:102B900020F0952311F00C942C160C94321611246D
:102BA0000C9477160E94541670F3959FC1F3950FFD
:102BB00050E0551F629FF001729FBB27F00DB11DC1
:102BC000639FAA27F00DB11DAA1F649F6627B00D51
:102BD000A11D661F829F2227B00DA11D621F739F3A
:102BE000B00DA11D621F839FA00D611D221F749F48
:102BF0003327A00D611D231F849F600D211D822F8F
:102C0000762F6A2F11249F5750409AF0F1F08823B5
:102C10004AF0EE0FFF1FBB1F661F771F881F9150E2
:102C20005040A9F79E3F510580F00C942C160C944F
:102C300077165F3FE4F3983ED4F3869577956795D2
:102C4000B795F795E7959F5FC1F7FE2B880F911D0C
:102C50009695879597F9089597F99F6780E870E0B2
:102C600060E008959FEF80EC089500240A94161602
:102C7000170618060906089500240A94121613066A
:102C8000140605060895092E0394000C11F48823F8
:102C900052F0BB0F40F4BF2B11F460FF04C06F5F14
:102CA0007F4F8F4F9F4F089557FD9058440F551FEA
:102CB00059F05F3F71F04795880F97FB991F61F0BE
:102CC0009F3F79F087950895121613061406551F35
:102CD000F2CF4695F1DF08C0161617061806991FA1
:102CE000F1CF86957105610508940895E894BB2796
:102CF00066277727CB0197F908952F923F924F923D
:102D00005F926F927F928F929F92AF92BF92CF927B
:102D1000DF92EF92FF920F931F93CF93DF93CDB784
:102D2000DEB7CA1BDB0B0FB6F894DEBF0FBECDBFFC
:102D300009942A88398848885F846E847D848C84CD
:102D40009B84AA84B984C884DF80EE80FD800C81D6
:102D50001B81AA81B981CE0FD11D0FB6F894DEBFB9
:102D60000FBECDBFED010895AA1BBB1B51E107C0EB
:102D7000AA1FBB1FA617B70710F0A61BB70B881F0B
:102D8000991F5A95A9F780959095BC01CD0108959A
:102D900097FB072E16F4009407D077FD09D00E9408
:102DA000B41607FC05D03EF4909581959F4F089589
:102DB000709561957F4F0895A1E21A2EAA1BBB1B47
:102DC000FD010DC0AA1FBB1FEE1FFF1FA217B307F7
:102DD000E407F50720F0A21BB30BE40BF50B661F0D
:102DE000771F881F991F1A9469F7609570958095D1
:102DF00090959B01AC01BD01CF010895EE0FFF1F1F
:102E00000590F491E02D09945058BB27AA270E9401
:102E10001C170C9443160E94351638F00E943C167D
:102E200020F039F49F3F19F426F40C9432160EF476
:102E3000E095E7FB0C942C16E92F0E94541658F3EA
:102E4000BA17620773078407950720F079F4A6F58F
:102E50000C9476160EF4E0950B2EBA2FA02D0B01D4
:102E6000B90190010C01CA01A0011124FF27591BCF
:102E700099F0593F50F4503E68F11A16F040A22FD5
:102E8000232F342F4427585FF3CF46953795279546
:102E9000A795F0405395C9F77EF41F16BA0B620B45
:102EA000730B840BBAF09150A1F0FF0FBB1F661F8C
:102EB000771F881FC2F70EC0BA0F621F731F841FCF
:102EC00048F4879577956795B795F7959E3F08F0F5
:102ED000B0CF9395880F08F09927EE0F97958795B7
:102EE00008950E945C1688F09F5798F0B92F992793
:102EF000B751B0F0E1F0660F771F881F991F1AF0E5
:102F0000BA95C9F714C0B13091F00E947616B1E0BD
:102F100008950C947616672F782F8827B85F39F0BC
:102F2000B93FCCF3869577956795B395D9F73EF47D
:102F300090958095709561957F4F8F4F9F4F089525
:102F40000E949B1508F48FEF08950F931F93CF9362
:102F5000DF938230910510F482E090E0E091B702B7
:102F6000F091B80230E020E0B0E0A0E0309799F4B2
:102F70002115310509F44AC0281B390B24303105CD
:102F8000D8F58A819B816115710589F1FB019383D5
:102F90008283FE0111C04081518102811381481753
:102FA0005907E0F04817590799F4109761F0129605
:102FB0000C93129713961C933296CF01DF91CF9109
:102FC0001F910F9108950093B7021093B802F4CFA8
:102FD0002115310551F04217530738F0A901DB01E3
:102FE0009A01BD01DF01F801C1CFEF01F9CF909344
:102FF000B8028093B702CDCFFE01E20FF31F819399
:1030000091932250310939832883D7CF2091B5027B
:103010003091B602232B41F4209104013091050137
:103020003093B6022093B502209102013091030142
:103030002115310541F42DB73EB74091060150915D
:103040000701241B350BE091B502F091B602E2179F
:10305000F307A0F42E1B3F0B2817390778F0AC01BB
:103060004E5F5F4F2417350748F04E0F5F1F509398
:10307000B6024093B502819391939FCFF0E0E0E0D8
:103080009CCFCF93DF930097E9F0FC013297138236
:103090001282A091B702B091B802ED0130E020E0B9
:1030A0001097A1F420813181820F931F2091B502E6
:1030B0003091B6022817390709F061C0F093B602C3
:1030C000E093B502DF91CF910895EA01CE17DF07B3
:1030D000E8F54A815B819E0141155105B1F7E9018F
:1030E000FB83EA8349915991C40FD51FEC17FD0763
:1030F00061F4808191810296840F951FE901998383
:103100008883828193819B838A83F0E0E0E012963A
:103110008D919C9113970097B9F52D913C91119742
:10312000CD010296820F931F2091B5023091B60215
:103130002817390739F6309751F51092B8021092D6
:10314000B702B093B602A093B502BCCFD383C283BB
:1031500040815181840F951FC817D90761F44E5FD4
:103160005F4F88819981480F591F518340838A811D
:103170009B81938382832115310509F0B0CFF093B1
:10318000B802E093B7029ECFFD01DC01C0CF1382ED
:103190001282D7CFB0E0A0E0E0EDF8E10C947F160A
:1031A0008C01009751F4CB010E94A5178C01C80136
:1031B000CDB7DEB7E0E10C949B16FC01E60FF71FDC
:1031C0009C0122503109E217F30708F49DC0D90190
:1031D000CD91DC911197C617D70798F0C530D1056E
:1031E00030F3CE0104978617970708F3C61BD70B59
:1031F0002297C193D1936D937C93CF010E94411884
:10320000D6CF5B01AC1ABD0A4C018C0E9D1EA0915D
:10321000B702B091B802512C412CF12CE12C10973F
:1032200031F58091B5029091B6028815990509F0A3
:103230005CC04616570608F058C080910201909174
:103240000301009741F48DB79EB74091060150915C
:103250000701841B950BE817F90708F055C0F09398
:10326000B602E093B502F90171836083A0CF8D911E
:103270009C91119712966C90129713967C901397CD
:10328000A815B90559F56C0142E0C40ED11CCA1449
:10329000DB0420F1AC014A195B09DA01129615979B
:1032A00080F06282738251834083D9016D937C9355
:1032B000E114F10471F0D7011396FC93EE93129789
:1032C00076CF22968C0F9D1FF90191838083F301A5
:1032D000EFCFF093B802E093B70269CF48165906D2
:1032E00008F42C017D01D3019ACFCB010E94A517D0
:1032F0007C01009749F0AE01B8010E948719C8010E
:103300000E944118870153CF10E000E050CFFB012D
:10331000DC0102C001900D9241505040D8F7089551
:10332000FB01DC0101900D920020E1F7089510E00F
:10333000C8ECD0E004C0FE010E94FE162196C93CF4
:08334000D107C9F7F894FFCF93
:103348000C010000B902800000000000840EE40DAA
:103358001B0D000000007802D8010502C5023602E4
:1033680014022802000000004808D8015A030B0381
:103378001A033203F10200000000C30663065D036E
:103388000D0A002F2F272722225C5C6208660C6E2C
:103398000A720D7409005C7530303030006E756C3F
:1033A8006C00747275650066616C7365003A002084
:1033B8003000524649442072656164657220696E26
:1033C800697469616C697A6564005549442074615F
:0E33D800673A2000726669640052464944005C
:00000001FF
